003IBM CORP         0710000000000000000020180305085000000830
006DIGITAL CORP.    0900000000000000000020180305110000000810
009APPLE CORP.      0550000000000000000020180305021000002610
012UNISYS CORP.     0575000000000000000020180305012500004600
015ZENITH CORP.     0090000000000000000020180305009500000940
